:020000040800F2
:100000001016002025030008E35D0008E9550008EC
:10001000E15D0008751F0008517100080000000034
:10002000000000000000000000000000FB6000086D
:100030001922000800000000E55D0008FD600008CE
:100040003F0300083F0300083F0300083F03000888
:100050003F0300083F0300083F0300083F03000878
:100060003F0300083F0300083F0300083F03000868
:100070003F0300083F0300083F0300083F03000858
:100080003F030008000000003F0300083F03000892
:100090003F0300083F0300083F0300083F03000838
:1000A0003F0300083F0300083F0300083F03000828
:1000B0003F0300083F0300083F0300083F03000818
:1000C0003F0300083F0300083F0300083F03000808
:1000D0003F0300083F030008DD7000084571000879
:1000E0003F0300083F0300083F0300083F030008E8
:1000F0003F0300083F0300083F0300080000000022
:10010000000000003F030008000000003F0300085B
:100110003F030008000000003F0300083F03000801
:100120003F0300083F0300083F0300083F030008A7
:100130003F03000800000000000000003F0300082B
:100140003F0300083F03000800000000000000001B
:10015000000000000000000000000000000000009F
:100160000000000000000000000000003F03000845
:100170003F03000800000000000000000000000035
:10018000000000003F030008000000000000000025
:10019000000000000000000000000000000000005F
:1001A00000000000000000003F0300083F030008BB
:1001B0003F0300083F0300083F0300080000000061
:1001C000000000003F0300080000000000000000E5
:1001D0003F0300083F03000800F002F800F092F827
:1001E0000AA090E8000C82448344AAF10107DA4592
:1001F00001D100F087F8AFF2090EBAE80F0013F052
:10020000010F18BFFB1A43F00103184778A1000043
:1002100098A10000103A24BF78C878C1FAD85207D4
:1002200024BF30C830C144BF04680C607047000070
:100230000023002400250026103A28BF78C1FBD8EF
:10024000520728BF30C148BF0B6070476E2900F0CD
:100250000284702900F06385662908F0A685652967
:1002600008F0A385672908F0A085612908F09F851B
:1002700003681B0A28BF41F08001692900F06081F2
:10028000642900F05D81752900F05A816F2900F022
:10029000F084782900F02F85E92900F08B84E42987
:1002A00000F08884F52900F08584EF2900F0ED84C2
:1002B000F82900F02E850368DB0928BF41F0800192
:1002C000632900F00C84732900F01184E32901F004
:1002D0000D81F32901F01281002070471FB508F04D
:1002E0005AFD01F05DF904000020002107F0F4FF41
:1002F000401C60600020002107F0D8FFE0601FBDB7
:1003000010B510BD01F01EF91146FFF7E7FF07F029
:1003100047FB01F0FBF903B4FFF7F2FF03BC01F068
:1003200003FA00000948804709480047FEE7FEE756
:10033000FEE7FEE7FEE7FEE7FEE7FEE7FEE7FEE795
:1003400004480549054A064B70470000C56100088E
:10035000D9010008101000201016002010120020F3
:100360001012002053EA020C00F069802DE9F04BD6
:100370004FF00006002B1FBFB3FA83F503FA05F414
:1003800024FA05F65E4012BF1643B2FA82F502FA6D
:1003900005F4C5F120051EBF22FA05FC44EA0C0451
:1003A000203556EA044C4FEA144418BF641C4FF041
:1003B00000084FF00009904271EB030C39D300297B
:1003C00019BFB1FA81F701FA07F6B0FA80F700FA1F
:1003D00007F6C7F120071EBF20FA07FC46EA0C0605
:1003E0002037B6FBF4FCA7EB0507103F07F01F0B07
:1003F000CBF120060CFA0BFB2CFA06F644BFB346F1
:100400000026202FA4BF5E464FF0000B5BEA060CCF
:1004100008BF4FF0010B19EB0B09ABFB027C48EB5B
:100420000608C01B06FB02CC0BFB03CC71EB0C01D6
:10043000C1E70B46024641464846BDE8F08B13B57E
:100440004FF000004FF00001AFF30080BDE81C400A
:10045000704700007CB51D4616460C00009001D088
:100460002044401E074B7B442A4669460190304693
:1004700000F00BFB05461CB10020694600F018FB9C
:1004800028467CBD510600000FB41CB5084B06AAD7
:100490007B4469460090059800F0F7FA0446002076
:1004A000694600F005FB20461CBC5DF814FB00000B
:1004B0001D0600000FB47CB50C0009AA009001D005
:1004C0002044401E084B7B4469460190089800F088
:1004D000DCFA05461CB10020694600F0E9FA28461E
:1004E0007CBC5DF814FB0000F105000070B50C4603
:1004F0000546012A05D02878800600D5EA69002340
:1005000002E0012305E05B1C934202D2E05C00287C
:10051000F9D1A869E618C01AA861286A18442862A7
:10052000284600F006FA04E0D5E9012114F8010B91
:100530009047B442F8D3284600F011FA70BD00008D
:100540002DE9F0410646002410687529314616A5AC
:1005500010D000F015FA002802DA404213A507E097
:1005600031688A0701D512A502E0490704D511A513
:10057000012401E000F00DFA00210A2206F124070F
:1005800009E0B0FBF2FCB0FBF2F302FB1C003030E0
:1005900078541846491C0028F3D123462A46304691
:1005A000BDE8F04100F0FEB9000000002D000000A1
:1005B0002B000000200000002DE9F05F8946044672
:1005C0004FF0000ADFF874B1FB44C0F820A02046C9
:1005D000E1688847002874D0252806D0D4E9012195
:1005E0009047206A401C2062F1E700265F462046C3
:1005F000E16888472028054607DB312D05D27819A8
:1006000010F8200C08B10643F1E7B00701D526F039
:100610000406C4F81CA00027C4F818A02A2D09D08D
:10062000284606F01EFE38B304EB8708303DC8F8B4
:10063000185019E059F8041B204604EB8702916119
:10064000E1688847012F054618D1E069002820DAC3
:1006500026F020061DE0D8F8180000EB800005EB1E
:1006600040003038C8F818002046E1688847054641
:1006700006F0F7FD0028EED1012F0AD02E2D08D16B
:100680002046E16888477F1C0546022F46F0200679
:10069000C4DBA069002803DA404246F00106A061ED
:1006A000F00701D026F010066C2D0BD0682D09D074
:1006B0004C2D39D06A2D35D0742D35D07A2D33D0CC
:1006C00016E038E0E1682F4620468847B8420546E4
:1006D00009D16C2F26D04FF48060E1680643204694
:1006E0008847054604E06C2F1AD04FF4807006430B
:1006F0000DB3A5F14100192802D8203546F4006653
:100700004A462946204626604E46FFF79FFD80B1A7
:1007100001280BD0F61D26F0070000F1080956E766
:100720004020E4E78020D8E70020D6E706F104095E
:100730004DE7284652E7206ABDE8F09F249A000062
:10074000401ECAB210F8011F8A4202D00029F9D116
:100750000020704730B505460B462A4613F8014B7A
:1007600012F8010B08B1A042F8D01CB1002802D049
:100770006D1CF1E7284630BD10B5431C02E010F8AF
:10078000011B71B18107FAD14FF0013202C88C1AF6
:100790008C4314EAC211F9D0C01A0A0603D0C01E55
:1007A00010BDC01A10BD0A0401D0801E10BD090280
:1007B000FCD0401E10BD10B5203AC0F00B80B1E84F
:1007C0001850203AA0E81850B1E81850A0E8185086
:1007D000BFF4F5AF5FEA027C24BFB1E81850A0E88F
:1007E000185044BF18C918C0BDE810405FEA827CA9
:1007F00024BF51F8043B40F8043B08BF7047D207C0
:1008000028BF31F8023B48BF11F8012B28BF20F860
:10081000023B48BF00F8012B70474FF0000204294B
:10082000C0F0128010F0030C00F01B80CCF1040C1F
:10083000BCF1020F18BF00F8012BA8BF20F8022B53
:10084000A1EB0C0100F00DB85FEAC17C24BF00F8F9
:10085000012B00F8012B48BF00F8012B70474FF027
:10086000000200B5134694469646203922BFA0E800
:100870000C50A0E80C50B1F12001BFF4F7AF09070C
:1008800028BFA0E80C5048BF0CC05DF804EB8900FD
:1008900028BF40F8042B08BF704748BF20F8022B40
:1008A00011F0804F18BF00F8012B70474FF0013C4A
:1008B00050F8042B51F8043B9A4221D1A2EB0C03CF
:1008C000934313EACC1317D150F8042B51F8043B8F
:1008D0009A4215D1A2EB0C03934313EACC130BD12C
:1008E00050F8042B51F8043B9A4209D1A2EB0C03B7
:1008F000934313EACC13DBD04FF00000704700BFE6
:10090000D01A01BAB1FA81F101F0180122FA01F00E
:10091000CB40C1F12001DBB2C0B2C01A2CFA01F306
:10092000D11A914311EAC311E6D17047704770475D
:10093000704770B5044685690068C10601D5302648
:1009400000E02026C00707D070BDD4E90121304661
:100950009047206A401C20626D1EF6D570BD70B5B0
:10096000044685690078C00707D170BDD4E901212C
:1009700020209047206A401C20626D1EF6D570BD75
:1009800009684A0501D540B27047C905FCD500B2D7
:10099000704709684A0501D5C0B27047C905FCD542
:1009A00080B270472DE9F0470D46994692460446BD
:1009B00000F124080168880604D5E06921F01001DF
:1009C000216000E00120A84201DD471B00E0002774
:1009D000A1697A1902EB0900081AA0612078C00603
:1009E00002D42046FFF7A5FF002608E0D4E9012144
:1009F0001AF806009047206A401C761C20624E457B
:100A0000F4DB2078C0060AD52046FFF792FF06E007
:100A1000D4E9012130209047206A401C2062381E12
:100A2000A7F10107F4DC07E0D4E9012118F805007B
:100A30009047206A401C2062281EA5F10105F3DCC6
:100A40002046FFF78CFF2078000602D50220BDE883
:100A5000F0870120FBE711680268006A530501D5A1
:100A600008700AE0D30501D5088006E0130603D517
:100A7000C217C1E9000200E00860012070470000D1
:100A800001694A1C02610878704700B58FB0CDE952
:100A900001310021059105497944CDE90310114642
:100AA0006846FFF789FD0FB000BD0000E5FFFFFFBE
:100AB0000A6802F8010B0A607047D1E900239A42E4
:100AC00002D2531C0B601070704710B5436913B10C
:100AD000AFF3008001E0FFF709FD012010BD12789F
:100AE00000F124010A7000224A700122EDE711682A
:100AF0004FF0FF32E9E700002DE9FF5F15468A4617
:100B00000446DFF8AC80F8440027D8E900103E46E0
:100B1000CDE9001010E03AF816106A4602A800F07D
:100B2000F1FC411C07D02178890603D5E269391808
:100B300091420DD80744761C2078800602D5E069E2
:100B4000B84205DDAE42E6DB3AF816000028E2D1F5
:100B5000A069C01BA0612046FFF7EBFED8E900109A
:100B6000CDE90010002017E03AF818106A4602A8F4
:100B700000F0C8FCB0F1FF3F81460BD000250DF11D
:100B8000080B05E0D4E901211BF8050090476D1C16
:100B90004D45F7D308F10100B0428046E4DB206AFE
:100BA000384420622046FFF7DAFEBDE8FF9F0000D0
:100BB000FA9400002DE9F0418046D21D22F0070290
:100BC0000025D2E90002F52915A614D0011E72F104
:100BD000000106DA0023D0EB030063EB020211A64A
:100BE00008E0D8F800108B0701D50FA602E04907EE
:100BF00001D50EA601251146002408F1240704E0C2
:100C000000F098F830323A55641C50EA0102F7D1EE
:100C10002B46324621464046BDE8F041FFF7C2BEB2
:100C2000000000002D0000002B000000200000004C
:100C300030B4002100F1240408E002F00705D208D6
:100C4000303542EA4372DB086554491C52EA030519
:100C5000F3D10468002310A2250707D5A40600D409
:100C600021B1C46901230DA2641EC46130BCFFF729
:100C700099BE10B5044621461068FFF78AFE024669
:100C80002046BDE810400023D2E7D21D22F0070124
:100C9000D1E90023CCE70000000000003000000094
:100CA000F0B40D460188090502D5214C7C4402E0D0
:100CB0001F4C7C440E34002100F1240608E002F0B1
:100CC0000F071209E75D42EA03721B097754491CBA
:100CD00052EA0307F3D102780023120704D5702DDE
:100CE00006D009B1022311342246F0BCFFF75ABEE8
:100CF00001231034F8E770B504460D46214610680C
:100D0000FFF747FE024629462046BDE87040002313
:100D1000C6E7D21D22F00703D3E90023C0E703682A
:100D2000126843F0200303600823C3610023B7E780
:100D30005C93000030B5B0F10A024FEA900E71F1F9
:100D400000034EEA817EB0EB0E0061EB91014FEAA9
:100D5000101E4EEA017E10EB0E0041EB11114FEA1E
:100D6000102E4EEA016E10EB0E0041EB11214FEAFE
:100D7000104E4EEA014E10EB0E0041EB11414018AF
:100D800041F100014FEAD00040EA41704FEAD10141
:100D900010EB80054FEA810444EA907444EB0104AF
:100DA0006D1944EB0404521BA3414FF0000348BFEC
:100DB0000A3200D530BD401C41F1000130BD704702
:100DC0002DE9FF4F0C461E464FF0FF378BB0D2E99E
:100DD0000001DDF860800A908A46C1F30A5505B922
:100DE0003D46002108464FF00000BAF1000F00F424
:100DF000400005DA00EB80004FF4400101EA5000AA
:100E00004FEA9059B9F1010F00DDB9460A9850EA4E
:100E10004A000ED044F61050A5F2FF3545432F147A
:100E2000B8F1000F1ED07542291E1EDDC9F1000267
:100E30001CE0B8F1010F4FF0000001D0302103E0B9
:100E4000F24305E02154401CB042FBDB3046002257
:100E5000002121540B99C1F80880C1E900200FB08E
:100E6000BDE8F08FBD1B6D1CDEE74A4600DA694223
:100E700006A800F0D9FB06AB93E8070003AB83E8B4
:100E8000070050460A9900F056FC8DE80700A0F5CF
:100E900000501F3800900398002D0ADD42F21F0118
:100EA0004A460844002303A90390684600F0BFFEA9
:100EB00009E0A0F500504A461F38002303A903901B
:100EC000684600F0C9FE8DE807000004000C03D05E
:100ED0004FF0FF30410800E01046B8F1000F03D09A
:100EE0000022009215461EE0751E05D4FFF722FF72
:100EF000303262556D1EF9D5B3460122084302D047
:100F000000227F1C04E02078302801D100227F1EBF
:100F1000002A099784D01DE0112D07DAFFF70AFF98
:100F2000303262556D1C50EA0102F5D1084302D0FF
:100F30000098C8B10EE00021681E05E0235C625CE9
:100F400063542254401E491C8142F7DBAB46A81B68
:100F5000401E0990002004F80B000B98099AC0F875
:100F60000880C0E9002B7AE711264FF0000857E708
:100F70002DE9F04F88460446D21D22F0070191B0BA
:100F8000D1E90001CDE90A0106F043F902460B98C8
:100F9000C00F01D02D2007E02068810701D52B204C
:100FA00002E0202101EAC000032A099001D0072AAB
:100FB00005DB03464146204600F0F6FA0BE12078B7
:100FC000800601D5E06900E00620B8F1650F814692
:100FD00006D0B8F1660F18D0B8F1670F70D131E0C4
:100FE0000020B9F1110F009001DB112301E009F19C
:100FF00001030AAA01A90CA8FFF7E2FEDDE90C70C3
:10100000002609F10105834647E001204B46009088
:101010004FF000470AAA01A90CA8FFF7D1FEDDE9AD
:101020000DB00C995D46002610B909F101000D18AC
:10103000B9EB050003D4C0F1FF3609F10105A5EBBA
:1010400009002BE0B9F1010F01DA4FF0010900208E
:10105000B9F1110F0090484601DD112300E003466D
:101060000AAA01A90CA8FFF7ABFEDDE90C704D46FA
:1010700000268346207800070AD4AB4500DA5D4697
:1010800001A8012D04DD411911F8011C302907D0F8
:101090004F4502DA17F1040F04DA012082460FE00F
:1010A0006D1EEEE7002F02DCED1B3E4403E0781CD2
:1010B000A84200DD7D1CB81B00F1010A4FF000477B
:1010C0002078000703D4AA4501DB4FF0FF3A002146
:1010D000B7F1004F0DF143088DF8431024D00220E2
:1010E0002B23002F01DA7F422D230A21021EA0F1BB
:1010F000010000DC5FB197FBF1FC97FBF1F201FB13
:101100001C7C17460CF1300C08F801CDEEE7A8F175
:10111000010003702188090501D5452100E0652102
:10112000A0F1010800F8011C09980FA9A1EB08071C
:10113000FF1D00B10120411901EBEA70A16938449B
:10114000081A401EA0612078C00602D42046FFF78E
:10115000F0FB099828B1D4E901219047206A401C8E
:1011600020622078C00622D52046FFF7E2FB1EE071
:10117000002E04DBB34502DD01A8805D00E03020D5
:10118000D4E901219047206A401C2062761CAAF114
:1011900001005FEA000A0AD100F002FAC0680168A3
:1011A000405CD4E901219047206A401C2062281E3F
:1011B000A5F10105DCDC07E0D4E9012118F8010BF9
:1011C0009047206A401C2062381EA7F10107F3DC1B
:1011D0002046FFF7C4FB032011B041E62DE9F04F94
:1011E00004460D46D21D22F0070089B0D0E90097D1
:1011F0004846394606F00DF80246F80F01D02D2377
:1012000007E02068810701D52B2302E0202101EAB5
:10121000C0038DF820300BB1012000E00020032A2C
:10122000824601D0072A04DB2946204600F0BCF99B
:101230003FE12078800601D40D2500E0E569C7F381
:101240000A560D2D49DA00214FEA175B08464FF088
:101250000000002F00F4400007DA00EB80004FF49C
:10126000400100EBD07001EA60008115012901DD29
:101270004FF0FF3100224FEA850CBCF1180F06D366
:101280001346ACF118004FF08052C24003E04FF417
:10129000801323FA0CF30CF10C0CBCF1200F04D3D7
:1012A000ACF1200C09FA0CF001E007FA0CF000296F
:1012B0004FF0004801DD18B90FE00ED140450CD3C6
:1012C00019EB02095F4121B9404502D19F4329EA48
:1012D0000209BBEB175F00D0761C2088000502D501
:1012E0007B48784402E07A487844193808AA3023C9
:1012F00002F80A30037C0AF10101002E0AF1020A09
:1013000053546A4602DC4FF0300101E04FF03101E6
:101310004FF001088DF8001002D0A6F2FF3603E06E
:1013200059EA470100D06B4E002D02DC21780907F5
:1013300004D54FF002082E218DF80110C44600217B
:101340000BE0C7F303433F01C35C491C6D1E02F869
:101350000830052908F1010801DA002DF1DC00212F
:101360000CE000EB1973491C1B786D1E082902F86C
:1013700008304FEA091908F1010801DA002DF0DC04
:1013800021688B0602D516E0A8F10108E04505DDCD
:1013900002EB080313F8013C302BF5D0B8F1000F35
:1013A00009DD02EB080313F8013C2E2B03D10907DA
:1013B00001D4A8F10108002D05DD3E2102F8081036
:1013C0006D1E08F10108407C002E02F8080008F1AB
:1013D000010804DA2D20764202F8080002E02B20F2
:1013E00002F808000A214FF47A70864208F10108D9
:1013F0000BDB96FBF0F3303302F8083096FBF0F38A
:1014000008F1010800FB136601E0642E0CDB642088
:1014100096FBF0F3303302F8083096FBF0F308F156
:10142000010800FB136601E00A2E06DB96FBF1F0D3
:10143000303002F8080008F1010896FBF1F001FBDA
:101440001060303002F80800A16908F1010808EBCB
:10145000050202EB0A00081AA0612078C00602D437
:101460002046FFF766FA216A08AE01EB0A00206207
:1014700004E0D4E9012116F8010B9047BAF1010A02
:10148000F7D22078C00602D52046FFF752FA6E4602
:1014900009E016F8010B3E280FD0D4E9012190474E
:1014A000206A401C2062B8F10108F2D22046FFF702
:1014B00056FA09B00320BDE8F08F206A2844206264
:1014C00003E0D4E90121302090476D1EEBD3F8E70B
:1014D000618D000002FCFFFF10B5436913B1AFF34B
:1014E000008001E0FFF708FB012010BD128800F129
:1014F000240182840022C2840122EDE711684FF0AA
:10150000FF32E9E770B516460C46054600F040F894
:10151000036893F80101012806D0FF2C0FD8185D4D
:1015200068B101202C7070BDD3F807013246214606
:1015300003F2071303442846BDE8704018474FF0F4
:10154000FF3070BD754600F0EBF8AE460500694609
:10155000534620F00700854618B020B5FEF7F0FE90
:10156000BDE820404FF000064FF000074FF00008A4
:101570004FF0000B21F00701AC46ACE8C009ACE825
:10158000C009ACE8C009ACE8C0098D46704700004E
:1015900010B500F005F8001D10BD00BF3D6D000046
:1015A00000487047CC0F00202DE9F0411F4604464B
:1015B00003260168072A01F4006004DB08B116A5C0
:1015C00005E016A503E008B115A500E015A521F07A
:1015D00010002060A069C01EA0610FB1401EA06174
:1015E0002046FFF7A6F94FB1D4E9012138469047CC
:1015F000206A401C2062C01C206206E0206AFAE7D4
:10160000D4E9012115F8010B9047761EF8D2204647
:10161000FFF7A5F9BDE8F0814E414E006E616E0006
:10162000494E4600696E66002DE9F0478146164630
:101630008AB0354878440DC88DE80D0032487844AA
:10164000801C03AC0DC884E80D0041F69B300844B3
:10165000372190FBF1F290FBF1F5A5F1800501FB3C
:1016600012041B3C02D56442012000E00020DFF898
:1016700098A080460027FA44AAF1BE0A0EE0E007CF
:101680000AD03246684607EB470101230AEB810185
:1016900000F0E2FA8DE8070064107F1C002CEED108
:1016A000194F7F44AE3F19E0E80715D007EB04104F
:1016B0000DF1180A90E80E008AE80E00C068F042AA
:1016C00001D1981908903246012306A903A800F019
:1016D000C3FA03AB83E807006D10641C002DE3D14F
:1016E0004FF0010332466946B8F1000F03A802D05B
:1016F00000F09DFA01E000F0AFFAC9E90001C9F875
:1017000008200AB0BDE8F087A08A000010B50446A2
:10171000AFF300802046BDE81040FEF7FCBD00009E
:1017200000487047AC0F002001491820ABBEFEE70F
:101730002600020070475FEA400C08BF91F0000FDE
:101740004FEA8C234FEAC12243EA51514FEA1C5021
:1017500018BF00F5F0404FEA300018BF41F00041DB
:101760005FEA6C5C00F02980BCF1FF3F08BF40F0ED
:1017700080407047130C06BF12044FF0100C4FF05E
:10178000000C130E04BF12020CF1080C130F04BF5F
:1017900012010CF1040C930F04BF92000CF1020C27
:1017A000D30F04BF52000CF1010C11464FF00002A0
:1017B000A0F11F00A0EB0C00704711F0004F08BF14
:1017C000704731F000413FF4D5AF0B0C06BF090460
:1017D0004FF0100C4FF0000C0B0E04BF09020CF17F
:1017E000080C0B0F04BF09010CF1040C8B0F04BF94
:1017F00089000CF1020CCB0F04BF49000CF1010C65
:10180000CCF12003A0EB0C0022FA03F302FA0CF255
:1018100041EA030100F10100704720F07F4C80EAAB
:10182000030023F07F47ACEB070303F57C5300F084
:10183000004003F1FF032DE980494FEA154B09B43D
:101840004FEA144325EA0B4E24EA03480FF204261C
:1018500006EB132749083E785FEA320203FB06676E
:10186000C7F5000707FB06F64FEA54374FEAD6469E
:1018700006F1020607FB066CCCF1005C4FEA1C4740
:101880002CEA074C07FB06F40CFB06F504EB1546A7
:101890004FEA961634BF00204FF000404FEAD13790
:1018A00006FB07FC4FEA1C4C0CFB0BF7D21B03FB9F
:1018B0000CF761EB07010CFB0EF7B0EB074072EB86
:1018C00017420CFB08F734BFA2EB0742B2EB07420A
:1018D00061EB17414FEA0C444FEA910706FB07FC06
:1018E0004FEA1C4C0CFB0BF7B0EBC74072EB5732C6
:1018F00003FB0CF734BFA2EBC742B2EBC74261EB6C
:1019000057310CFB0EF7B0EBC70072EB57720CFBB4
:1019100008F734BFA2EBC702B2EBC70261EB577105
:10192000039F4FEA816141EA921104EBCC044FEA34
:10193000D1374FEA826206FB07FC42EA90124FEA77
:1019400080604FEA1C4C0CFB0BF7D21B03FB0CF71F
:1019500061EB07010CFB0EF7B0EB074072EB17428F
:101960000CFB08F734BFA2EB0742B2EB074261EB76
:1019700017414FEA8C554FEA910704EB9C2406FB74
:1019800007FC4FEA1C4C0CFB0BF7B0EBC74072EBAB
:10199000573203FB0CF734BFA2EBC742B2EBC7428E
:1019A00061EB57310CFB0EF7B0EBC70072EB5772CF
:1019B0000CFB08F734BFA2EBC702B2EBC70261EB26
:1019C000577115EB4C254FEA816141EA92114FEABC
:1019D00082624FEAD13742EA901206FB07FC44F1DB
:1019E00000044FEA80604FEA1C4C0CFB0BF7D21B43
:1019F00003FB0CF761EB07010CFB0EF7B0EB0740A4
:101A000072EB17420CFB08F734BFA2EB0742B2EBB4
:101A1000074261EB174115EB1C154FEA813141EA92
:101A200092414FEA823242EA90424FEA80304FEAD6
:101A30000C7644F1000448EA03434EEA0B484FF0A9
:101A4000000EB2EB080C71EB030724BF6246394667
:101A50004EEB0E0E4FF0000B0018524149414BEB7C
:101A60000B0BB2EB080C71EB03077BF1000B24BFEF
:101A7000624639464EEB0E0E4FF0000B00185241F5
:101A800049414BEB0B0BB2EB080C71EB03077BF1FD
:101A9000000B24BF624639464EEB0E0E51EA020798
:101AA00018BF46F0010616EB0E7655F1000254F110
:101AB000000103D5BDE88901BDE80088BDE88901C2
:101AC000BDE80048B619524141EB0101A3F1010301
:101AD000704780807F7E7D7C7B7A7978777676759B
:101AE0007473727171706F6E6E6D6C6C6B6A6A6913
:101AF0006868676666656464636362616160605FAD
:101B00005F5E5E5D5D5C5C5B5B5A5A595958585725
:101B1000575656555555545453535252525151508D
:101B200050504F4F4F4E4E4D4D4D4C4C4C4B4B4BE0
:101B30004A4A4A4949494848484747474746464626
:101B40004545454444444443434343424242424161
:101B50004141002B9C4630D477002BD01CB54FEA76
:101B6000370703B44FF010004FF01001BAF1000F27
:101B700006D0BCF1000FDCBF40F0080040F00801C7
:101B80004FF000000FBCBDE810400BF1010BBBF1A2
:101B9000010F08BF5FEA170722BF12F1010211F11E
:101BA00001014FF0004143F1000300F0004043EA1F
:101BB00000007047F9D35708D0E746EA064613F10C
:101BC000400F4FEA16461FDD13F1200FDFBF16430B
:101BD0000A46002120335B42BED0C3F1200746EA0B
:101BE000064602FA07F74FEA164646EA0706C3F129
:101BF000200722FA03F201FA07F721FA03F14FF066
:101C0000000342EA0702A7E746EA020646EA06465A
:101C10004FEA164646EA0106BCBF46EA0646360CBF
:101C20004FF000034FF000024FF0000194E72DE960
:101C3000804C9A46934670B491E8380007C831EA60
:101C4000400C48BF34EA430C03D5FFF7E6FDFFF72D
:101C500080FFF0BCBDE8008C2DE9804C9A4693468D
:101C600070B491E8380007C810F0804F08BF13F037
:101C7000804F03D100F005F8FFF76BFFF0BCBDE823
:101C8000008C20F07F4780EA030023F07F4C07EBB5
:101C90000C03A3F57C5300F00040A3F1FE0392F087
:101CA000000F00F0B38095F0000F00F077802DE971
:101CB00001494FEA11404FEA144621EA004800FB6F
:101CC00006FC24EA064708FB06F607FB08F800FBBB
:101CD00007F718EB06484CEB164C4FEA124B18EB83
:101CE00007484FEA15464CEB174022EA0B4E0BFB18
:101CF00006FC25EA06470EFB06F607FB0EFE0BFB6D
:101D000007F71EEB064E4CEB164C4FF000061EEB91
:101D1000074E4CEB174B18EB0B0840F1000018EB8B
:101D20000E0B58EB000840F100008F1A4FF0000135
:101D30003CBFC943661B14BFB5EB040C00213CBF7C
:101D4000C943F61B4FEA17444EEA8E0E27EA0445B4
:101D50004FEA1C4704FB07622CEA074C05FB07F718
:101D60000CFB05F604FB0CFC16EB074642EB174296
:101D700016EB0C4642EB1C421BEB060658EB02022C
:101D8000414146EA9E0601D5BDE80189B619524196
:101D900041EB0101A3F10103BDE801894FEA1445BC
:101DA0004FEA114724EA054621EA074C05FB07F4F0
:101DB00006FB07F70CFB06F105FB0CFC11EB0741DA
:101DC00044EB17444FEA124711EB0C4144EB1C441F
:101DD00022EA074C05FB07F206FB07F70CFB06F6A9
:101DE00005FB0CFC16EB074642EB174216EB0C46C4
:101DF00042EB1C456A1854F1000148BF7047B61900
:101E0000524141EB0101A3F10103704795F0000F2E
:101E100037D04FEA11424FEA144721EA024624EA3A
:101E2000074C02FB07F106FB07F70CFB06F402FB6D
:101E30000CFC14EB074441EB17414FEA154714EB38
:101E40000C4441EB1C4125EA074C02FB07F506FB5D
:101E500007F70CFB06F602FB0CFC16EB074645EBFE
:101E6000174516EB0C4645EB1C42121951F10001C7
:101E700048BF7047B619524141EB0101A3F101037C
:101E800070474FEA14454FEA114724EA054621EA14
:101E9000074C05FB07F106FB07F70CFB06F24FF0BA
:101EA000000605FB0CFC12EB074241EB174112EB5D
:101EB0000C4251EB1C4148BF7047921841EB0101A5
:101EC000A3F1010370470000F8B50446002000901C
:101ED0002068816811F0010F41D18168214A1142C7
:101EE0002ED18168D5432940491C81601E488068F5
:101EF00000F0E07000020DD51C481D490068B0FBE1
:101F0000F1F0401C00EB4000800000E0401E00901B
:101F10000028FBD102F03AF806461BE0816811F078
:101F2000010F03D181682940491C816002F02EF81D
:101F3000801B02280ED920680068C043C00709D062
:101F4000E06D40F01000E065206E40F0010020667A
:101F50000120F8BD20680168C943C907DED100200F
:101F6000F8BD00003F000080000300501400002076
:101F7000400D0300FEE7000010B5044602F036FBFA
:101F80000349B0FBF1F16143491EFDD210BD0000D1
:101F900000093D0010B52948C8B08188B1F57A7FA5
:101FA0004AD30021818000F0BFF801280FD024A17E
:101FB0002B48FEF769FA2A48FEF7DEFB48B082B2EA
:101FC000BDE8104064232649264803F0B5BA5622DE
:101FD000244922A8FEF7EFFB224CB4F85600ADF8D6
:101FE000DE0054F8580F3890A088ADF8E400E0887F
:101FF000ADF8E600A068E16822693AAB83E8070023
:1020000060693D90A0693E901649142274313FA842
:10201000FEF7D1FB206B4490606B4590A06B46901F
:1020200011A02190842226A96846FEF7C4FB22ACA9
:1020300094E80F0005F08EF848B010BD180000209D
:102040004448543131C3BBD3D0D3A6B4F0A3ACC7FA
:10205000EBBCECB2E9B4ABB8D0C6F7210D0A000076
:10206000F80200203C010020CAFDBEDDD0A3D1E96A
:10207000B3C9B9A6210D0A0010B52820FFF77CFFCF
:102080004FF40041034801F06FFF08B1002010BD7C
:10209000012010BD0004004800B50B4B85B04FF483
:1020A0000042012120B100200092CDE9010104E0AD
:1020B0000220CDE90021CDE902106946184601F061
:1020C0002FFE05B000BD00000004004870B50D4DA6
:1020D0004FF400442146284601F046FF0028F9D07D
:1020E0002820FFF749FF2146284601F03DFF002840
:1020F00006D02146284601F037FF0028F9D10120FB
:1021000070BD00000004004870B50024254660063C
:10211000040EFFF7DBFF08B144F001046D1CEDB2C3
:10212000082DF4D3204670BD7CB500F061F8FFF7B0
:10213000A3FF00283ED0204D4FF4004421462846FE
:1021400001F012FF0028F9D02146284601F00CFFCB
:102150000028F9D10025194CFFF7D6FF60556D1CFA
:10216000EDB2052DF8D322786378A178E078D51800
:102170000E1835442679B5421AD1CDE9001010A1C8
:102180001948FEF781F91848FEF7F6FA82B264237F
:102190001549164803F0D0F908482178801F0170CE
:1021A00061784170A1788170E178C17001207CBDB7
:1021B00000207CBD02207CBD000400481E000020E1
:1021C000B5B1C7B0CAAAB6C8A3BA25642E2564257E
:1021D000255248B5B1C7B0CEC2B6C8A3BA25642E41
:1021E0002564A1E3432D2D00F80200203C010020CE
:1021F00010B50020FFF750FF00224FF400410548C2
:1022000001F0BFFE142001F079FDBDE8104001206F
:10221000FFF742BF000400487047002240F6B83381
:1022200006E00021491C89B29942FBD3521C92B2AC
:102230008242F6D37047000010B54FF48061034826
:10224000FEF70DFB02490020888110BD40030020ED
:10225000240000202DE9F041C8B04FF400614FF098
:10226000904001F086FEFFF7E7FF5622FE4922A8C4
:10227000FEF7A1FAFC4CB4F85600ADF8DE0054F8B5
:10228000580F3890A088ADF8E400E088ADF8E6007B
:10229000A068E16822693AAB83E8070060693D9075
:1022A000A0693E90F0491422743188463FA8FEF799
:1022B00082FA206B4490606B4590A06B4690EBA037
:1022C0002190842226A96846583CFEF774FA22AD74
:1022D00095E80F0004F03EFFE6A1EC48FEF7D4F8C5
:1022E000EA49602003F024FA03E0E9A1E748FEF799
:1022F000CBF8EDA1EDA000F0D9FB0028F5D1E34922
:10230000602003F015FA4FF4FA75284601F0F6FC48
:102310005622D54922A8FEF74EFAB4F85600ADF879
:10232000DE0054F8580F3890A088ADF8E400E0883B
:10233000ADF8E600A068E16822693AAB83E80700DF
:1023400060693D90A0693E90142241463FA8FEF787
:1023500032FA206B4490606B4590A06B4690D5A0FC
:102360002190842226A96846FEF725FA22AE96E837
:102370000F0004F0EFFED2A1C448FEF785F8C34970
:10238000602003F0D5F9CAA1D3A000F08FFBC0A153
:10239000BE48FEF779F8BD49602003F0C9F9284628
:1023A00001F0ACFC5622B04922A8FEF704FA34F83A
:1023B000020CADF8DE0020683890A088ADF8E4008B
:1023C000E088ADF8E600A068E16822693AAB83E8EE
:1023D000070060693D90A0693E90142241463FA8E5
:1023E000FEF7E9F9206B4490606B4590A06B469036
:1023F000BCA02190842226A96846583CFEF7DBF950
:1024000096E80F0004F0A6FEB9A1A048FEF73CF83C
:102410009E49602003F08CF903E09DA19B48FEF7E4
:1024200033F8A1A1B8A000F041FB0028F5D19749ED
:10243000602003F07DF9284601F060FC56228A49AD
:1024400022A8FEF7B8F9B4F85600ADF8DE0054F84B
:10245000580F3890A088ADF8E400E088ADF8E600A9
:10246000A068E16822693AAB83E8070060693D90A3
:10247000A0693E90142241463FA8FEF79CF9206BCC
:102480004490606B4590A06B4690A3A0219084225D
:1024900026A96846583CFEF78EF922AE96E80F0052
:1024A00004F058FEA0A17948FDF7EEFF77496020BF
:1024B00003F03EF903E076A17448FDF7E5FF7AA149
:1024C0009FA000F0F3FA0028F5D17049602003F0D6
:1024D0002FF9284601F012FC5622634922A8FEF784
:1024E0006AF9B4F85600ADF8DE0054F8580F389089
:1024F000A088ADF8E400E088ADF8E600A068E168E7
:1025000022693AAB83E8070060693D90A0693E907C
:10251000142241463FA8FEF74EF9206B4490606BB1
:102520004590A06B46908AA02190842226A96846F7
:10253000583CFEF740F922AE96E80F0004F00AFE80
:1025400086A15248FDF7A0FF5049602003F0F0F843
:1025500003E04FA14D48FDF797FF53A185A000F080
:10256000A5FA0028F5D14949602003F0E1F8284692
:1025700001F0C4FB56223C4922A8FEF71CF9B4F82E
:102580005600ADF8DE0054F8580F3890A088ADF82A
:10259000E400E088ADF8E600A068E16822693AABA3
:1025A00083E8070060693D90A0693E90142241468F
:1025B0003FA8FEF700F9206B4490606B4590A06B3C
:1025C000469074A02190842226A96846583CFEF7C4
:1025D000F2F822AE96E80F0004F0BCFD71A12B4882
:1025E000FDF752FF2949602003F0A2F8734E74A151
:1025F000F06900902548D6E905231930FDF744FF1E
:1026000003E023A12148FDF73FFF204826A1193010
:1026100000F04CFA0028F4D11C49602003F088F83F
:10262000284601F06BFB19484FF480673946193092
:10263000FEF7F3F856220C4922A8FEF7BCF8B4F8CE
:102640005600ADF8DE0054F8580F3890A088ADF869
:10265000E400E088ADF8E600A068E16822693AABE2
:1026600083E807006069C1E03C010020302E204172
:10267000540D0A002020202020302E2041542020FC
:1026800020202020202020202020000040070020A3
:1026900020202020204F4B202020202020202020E0
:1026A00020202020202000004F4B000041540D0A24
:1026B00000000000312E205253540D0A000000008B
:1026C0002020202020312E20525354202020202052
:1026D000202020202000000041542B5253540D0A8A
:1026E00000000000322E2043574D4F44450D0A0094
:1026F0002020202020322E2043574D4F44452020BB
:10270000202020202020000041542B43574D4F44CF
:10271000453D310D0A000000332E2041542B435714
:10272000444843500D0A00002020202020332E2052
:1027300041542B4357444843502020202020000080
:1027400041542B4357444843503D312C310D0A002E
:10275000342E2043574A41500D0A000020202020EB
:1027600020342E2043574A41502020202020202072
:102770002020000041542B43574A41503D224D79BF
:1027800053534944222C22313233353637383922DB
:102790000D0A0000352E4D515454555345524346B1
:1027A000470D0A002020202020352E4D515454552D
:1027B000534552434647202020200000240000209B
:1027C00041542B4D515454555345524346473D3087
:1027D0002C312C222573222C222573222C222573A6
:1027E000222C302C302C22220D0A00003D90A069B2
:1027F0003E90142241463FA8FDF7DDFF206B449038
:10280000606B4590A06B469077A02190842226A90A
:102810006846583CFDF7CFFF0DF1880C9CE80F008F
:1028200004F098FC74A17A48FDF72EFE78496020E8
:1028300002F07EFF764877A11930326AFDF724FE58
:1028400003E07BA17248FDF71FFEAFF2A4117048B0
:10285000193000F02BF90028F3D16D49602002F007
:1028600067FF284601F04AFA694839461930FDF7F2
:10287000D4FF5622744922A8FDF79DFFB4F85600F4
:10288000ADF8DE0054F8580F3890A088ADF8E40099
:10289000E088ADF8E600A068E16822693AAB83E819
:1028A000070060693D90A0693E90142241463FA810
:1028B000FDF781FF206B4490606B4590A06B4690C4
:1028C00062A02190842226A96846583CFDF773FF38
:1028D0000DF1880C9CE80F0004F03CFC5EA14C4814
:1028E000FDF7D2FD4A49602002F022FF484860A16E
:1028F0001930B26AFDF7C8FD03E04DA14448FDF769
:10290000C3FDAFF25C214248193000F0CFF8002837
:10291000F3D13F49602002F00BFF284601F0EEF9A9
:102920003B4839461930FDF778FF5622464922A820
:10293000FDF741FFB4F85600ADF8DE0054F8580F2B
:102940003890A088ADF8E400E088ADF8E600A06813
:10295000E16822693AAB83E8070060693D90A069AD
:102960003E90142241463FA8FDF725FF206B44907E
:10297000606B4590A06B469043A02190842226A9CD
:102980006846FDF718FF0DF1880C9CE80F0004F075
:10299000E1FB40A11E48FDF777FD1D49602002F0D4
:1029A000C7FE1B4832A11930F26AFDF76DFD20A168
:1029B0001748FDF769FD1649602002F0B9FE02E0F4
:1029C000284601F09BF9AFF220311148193000F090
:1029D0006DF80028F4D148B03946BDE8F0410C4804
:1029E0001930FDF71ABF0000362E4D515454434F95
:1029F0004E4E0D0A000000002020202020362E4DD3
:102A0000515454434F4E4E202020202020000000DF
:102A10004007002041542B4D515454434F4E4E3DDE
:102A2000302C222573222C313838332C310D0A00FA
:102A300020202020204F4B2020202020202020203C
:102A400020202020200000003C010020372E4D5186
:102A500054545355420D0A002020202020372E4D7B
:102A600051545453554220202020202020000000A3
:102A700041542B4D5154545355423D302C22257313
:102A8000222C310D0A000000382E4D51545453555C
:102A9000420D0A002020202020382E4D515454533E
:102AA0005542202020202020200000002DE9F04168
:102AB000C8B088460646C825FDF75EFE87B2562296
:102AC000254923A8FDF777FE234CB4F85600ADF84E
:102AD000E20054F8580F3990A088ADF8E800E0887B
:102AE000ADF8EA00A068E16822693BAB83E8070023
:102AF00060693E90A0693F9017491422743140A844
:102B0000FDF759FE206B4590606B4690A06B479097
:102B1000842227A96846CDE92167FDF74CFE23AC46
:102B200094E80F0004F05EFB11E000BF00F018F81D
:102B300050B941460948FDF70DFE28B1FFF77CFB6F
:102B4000002048B0BDE8F0810A2001F0D7F86D1EE2
:102B5000EDB2EBD20120F4E7640200204003002034
:102B60000648818931B1C289914205D10021818114
:102B70000846704701207047C181FBE72400002010
:102B80002DE9F043CBB00027814648974997DDA156
:102B90004A97FDF7DFFDDC4C48AD04F174080028CE
:102BA0007ED0D8A14846FDF7D5FD3A21FDF7C8FDF6
:102BB00006465622214623A8FDF7FDFDB4F856002F
:102BC000ADF8E20054F8580F3990A088ADF8E8004D
:102BD000E088ADF8EA00A068E16822693BAB83E8D1
:102BE000070060693E90A0693F901422414640A8CA
:102BF000FDF7E1FD206B4590606B4690A06B479020
:102C0000C2A0CDE92106842227A96846583CFDF7D9
:102C1000D2FD0DF18C0C9CE80F0004F09BFA002E05
:102C200052D00020761C315CA1F161021A2A01D336
:102C30002F5404E02954401CC0B20A28F3D3562272
:102C4000B14923A8FDF7B7FDB4F85600ADF8E2008E
:102C500054F8580F3990A088ADF8E800E088ADF836
:102C6000EA00A068E16822693BAB83E8070060697D
:102C70003E90A0693F901422414640A8FDF79BFD7D
:102C8000206B4590606B4690A06B4790A1A0CDE96A
:102C90002105842227A96846583CFDF78CFD00E0F9
:102CA00012E023AE96E80F0004F054FA9BA148A866
:102CB000FDF7FCFD28B19BA148A8FDF7F7FD08B181
:102CC00002E0012004F064FF98A14846FDF742FDB0
:102CD00000287DD095A14846FDF73CFD3A21FDF73F
:102CE0002FFD06465622884923A8FDF764FDB4F857
:102CF0005600ADF8E20054F8580F3990A088ADF8AE
:102D0000E800E088ADF8EA00A068E16822693BAB22
:102D100083E8070060693E90A0693F901422414615
:102D200040A8FDF748FD206B4590606B4690A06B76
:102D3000479076A0CDE92106842227A96846583C11
:102D4000FDF739FD0DF18C0C9CE80F0004F002FA40
:102D5000F6B30020761C315CA1F130020A2A01D3BF
:102D60002F5404E02954401CC0B20A28F3D3562241
:102D7000654923A8FDF71FFDB4F85600ADF8E20041
:102D800054F8580F3990A088ADF8E800E088ADF805
:102D9000EA00A068E16822693BAB83E8070060694C
:102DA0003E90A0693F901422414640A8FDF703FDE4
:102DB000206B4590606B4690A06B479055A0CDE985
:102DC0002105842227A96846583CFDF7F4FC00E061
:102DD00007E023AE96E80F0004F0BCF948A804F021
:102DE000E7FF56A14846FDF7B5FC00287ED053A169
:102DF0004846FDF7AFFC3A21FDF7A2FC06465622F5
:102E0000414923A8FDF7D7FCB4F85600ADF8E2001D
:102E100054F8580F3990A088ADF8E800E088ADF874
:102E2000EA00A068E16822693BAB83E807006069BB
:102E30003E90A0693F901422414640A8FDF7BBFC9C
:102E4000206B4590606B4690A06B47902FA0CDE91A
:102E50002106842227A96846583CFDF7ACFC0DF1F9
:102E60008C0C9CE80F0004F075F9002E46D0002071
:102E7000761C315CA1F130020A2A01D32F5404E000
:102E80002954401CC0B20A28F3D356221E4923A855
:102E9000FDF791FCB4F85600ADF8E20054F8580F75
:102EA0003990A088ADF8E800E088ADF8EA00A068A5
:102EB000E16822693BAB83E8070060693E90A06946
:102EC0003F901422414640A8FDF775FC206B4590C9
:102ED000606B4690A06B47900EA0CDE9210584223F
:102EE00027A96846FDF767FC23AE00E006E096E8F8
:102EF0000F0004F02FF948A804F0B4FE4BB0BDE871
:102F0000F0830000434D44003C0100206970643AA6
:102F100025730000636D643A257300007472756553
:102F20000000000066616C736500000074656D70E0
:102F30005468726573686F6C640000006C69676840
:102F4000745468726573686F6C64000030B5C7B004
:102F50004FEA0005FFF704FE002841D124A12848CC
:102F6000FDF7F8FB38B13A21FDF7EAFB002800D065
:102F7000401C47B030BD5622224922A8FDF71BFC59
:102F8000204CB4F85600ADF8DE0054F8580F3890D5
:102F9000A088ADF8E400E088ADF8E600A068E1683C
:102FA00022693AAB83E8070060693D90A0693E90D2
:102FB0001449142274313FA8FDF7FDFB206B4490A7
:102FC000606B4590A06B46900FA02190842226A9AB
:102FD0006846FDF7F0FB22AC94E80F0004F0BAF865
:102FE000052000F08BFE28466D1EADB2B2D2C0E7C0
:102FF0002B4D515454535542524543560000000046
:10300000400300203C0100202249504422206E6FE2
:103010007420666F756E640D0A00000072B6FEE7DC
:10302000F0B5844DADF2245D6889B0F5FA6F7DD3BB
:1030300000206881814905F150047F4AA4F11C00F9
:10304000097805AE1278C36886E81E007C4A1478B9
:103050007C4A1378D0E90121CDE90341CDE9012370
:10306000298A00914FF480640368774A214648A872
:10307000FDF720FA75A2214679486B6AFDF71AFA26
:1030800022265C2748A9764D631F0BE0222A01D037
:103090002A5405E0821CA24203D22F54401C2E5415
:1030A000401C491C0A780AB19842EFD3C0F58061F0
:1030B00028446CA2FDF7FEF956226C4923A8FDF7BF
:1030C0007AFB6A4CB4F85600ADF8E20054F8580F99
:1030D0003990A088ADF8E800E088ADF8EA00A06873
:1030E000E16822693BAB83E8070060693E90A06914
:1030F0003F905E49142274310F4640A8FDF75BFBF8
:10310000206B4590606B4690A06B479058A0CDE92E
:103110002105842227A96846583CFDF74CFB23AEC5
:1031200096E80F0004F016F8022500E045E054A1EF
:103130004B48FFF7BBFC90F0010638D156224B49B3
:1031400022A8FDF738FBB4F85600ADF8DE0054F8BD
:10315000580F3890A088ADF8E400E088ADF8E6009C
:10316000A068E16822693AAB83E8070060693D9096
:10317000A0693E90142239463FA8FDF71CFB206B46
:103180004490606B4590A06B46903EA021908422B5
:1031900026A96846583CFDF70EFB0DF1880C9CE80B
:1031A0000F0003F0D7FF4FF4FA7000F0A7FD281EC0
:1031B000A5F1010504DD002EB7D00DF2245DF0BDB0
:1031C000002EFAD15622294923A8FDF7F4FAB4F8C3
:1031D0005600ADF8E20054F8580F3990A088ADF8C9
:1031E000E800E088ADF8EA00A068E16822693BAB3E
:1031F00083E8070060693E90A0693F901422394639
:1032000040A8FDF7D8FA206B4590606B4690A06B04
:103210004790C5F103011FA0CDE92101842227A910
:103220006846FDF7C8FA23AE96E80F0003F092FF58
:10323000C3E70000240000201B0000201A0000202B
:10324000190000201800002018A3000841542B4D3D
:103250005154545055423D302C222573222C2200CB
:1032600059070020222C302C300D0A003C01002090
:1032700053656E64696E673A2025730D0A0000007D
:103280004F4B00005265747279696E672E2E2E0DB9
:103290000A0000005075626C697368206661696C91
:1032A000656420616674657220256420726574729D
:1032B0006965730D0A0000002DE9F047044690F897
:1032C00058009CB00E464FF00009012815D001208F
:1032D00084F8580000251795189520684FF0A048ED
:1032E00040450ED1284F0097384602F087FB8246B2
:1032F000206802F083FB60B10EE002201CB0BDE844
:10330000F087E06D40F02000E06584F8585001201F
:10331000F4E7BAF1000F09D0E06D40F02000E0655D
:103320004FF0010984F858504846E7E717483268DB
:1033300040F61F71002A826822F4604216D094F889
:10334000383042EA433273681A438260D8F8082062
:10335000BB6802F0010203F001031A43E2D1B36833
:1033600032681A4383688B431A430BE08260D8F8B3
:103370000820BB6802F0010203F001031A43D1D117
:1033800082688A438260CDE700010050000300504C
:103390002DE9F84F00270446009790F85800DFF811
:1033A000E0930D46B846012811D0012684F85860F4
:1033B000206802F01FFB60B1E06D40F02000E06586
:1033C0005FF0010784F858803846BDE8F88F022086
:1033D000FBE7D5E900210C23206803EA9113184488
:1033E000036B01F01F014FF01F0C0CFA01FCC2F33C
:1033F000846223EA0C038A4013430363206802F0CB
:10340000F9FA8246206802F0F1FA5AEA00003CD14B
:10341000AA6829682068B2F1004F37D002F0FAFAA2
:103420002068416921F00041416120686969C268F2
:10343000C2F3C102520091402A69042A31D000EB44
:1034400082002B68026EDFF83CC303F0F84302EA07
:103450000C020B431A4342F00041016620682A69BE
:10346000A96900EB8200026E22F080720A430266B4
:10347000297F22682869012910D0002102EB8000F1
:10348000026E22F000720A4302667DE0002202F022
:10349000C1FA2068416941F00041C5E74FF0007171
:1034A000ECE7002102F09CFA400320684FF0000195
:1034B00072D002F095FA90FAA0F0B0FA80F1286884
:1034C00042036ED090FAA0F0B0FA80F0814204D1AD
:1034D00000221146206802F0ACFA0121206802F0B7
:1034E0007FFA400320684FF001015DD002F078FAC6
:1034F00090FAA0F0B0FA80F12868420359D090FA0F
:10350000A0F0B0FA80F0814204D1002201212068AD
:1035100002F08FFA0221206802F062FA400320686C
:103520004FF0020148D002F05BFA90FAA0F0B0FA36
:1035300080F12868420344D090FAA0F0B0FA80F0FD
:10354000814204D100220221206802F072FA032194
:10355000206802F045FA400320684FF0030133D0A1
:1035600002F03EFA90FAA0F0B0FA80F12868420327
:103570002FD090FAA0F0B0FA80F0814204D100225E
:103580000321206802F055FA2068816811F0010FCC
:1035900022D0ACE000E004E002F022FAC0F3846143
:1035A0008DE7C0F3846091E702F01AFAC0F38461FA
:1035B000A2E7C0F38460A6E702F012FAC0F38461C8
:1035C000B7E7C0F38460BBE702F00AFAC0F3846196
:1035D000CCE7C0F38460D0E72A7B296850F8B03F7D
:1035E000C1F3120C23EA0C0302F0180C664A22FA0B
:1035F0000CF20A4013430360E968494577D1286813
:1036000041031CD090FAA0F1B1FA81F1491C01F0FC
:103610001F0109294FEA403132D8002912D000BFDA
:1036200090FAA0F1B1FA81F101F1010101F01F015D
:1036300006FA01F609D100BFC0F3846109E0C0F3C6
:103640008461E3E7C0F38461EEE790FAA0F1B1FA98
:1036500081F101F1010101F01F0146EA816102D10E
:10366000C0F3846003E090FAA0F0B0FA80F000F1BB
:10367000010000F01F0000EB400041EA005132E081
:1036800000290ED090FAA0F1B1FA81F101F1010107
:1036900001F01F0106FA01F606D100BFC0F38461F4
:1036A00006E0C0F38461F1E790FAA0F1B1FA81F18C
:1036B00001F1010101F01F0146EA816102D1C0F36D
:1036C000846003E090FAA0F0B0FA80F000F101000D
:1036D00000F01F002D4A00EB400002EB005041EAD1
:1036E000000141F00071AA68206802F093F92848AF
:1036F0002A6802423FF466AE26488168264B01F0F4
:10370000E0719A4202D0254B9A421CD10B021AD486
:103710002268B2F1A04F7FF455AE826841F40001F7
:1037200022F0E0720A4382601D481E490068B0FB27
:10373000F1F0401C00EB4000800000E0401E0090D3
:103740000028FBD13EE6184D184BAA4207D1CD0107
:1037500005D422689A42F5D041F0807109E0144DF9
:10376000AA42EFD14A02EDD422689A42EAD041F44B
:103770008001826822F0E0720A43826022E6000043
:1037800000007F4000F0FF03FFFF0700000020FE65
:103790000000088000030050000021C31000C0900A
:1037A00014000020400D0300000052C7000100502B
:1037B000000084CB0068006C70470000F8B54FF043
:1037C000000504002E46009502D0E06D10B107E020
:1037D0000120F8BD204600F0EBF8266684F858601A
:1037E00020688168C1F3407119B18168684A11404D
:1037F000816020688168C1F3007189B98168654A78
:10380000114041F080518160634864490068B0FB19
:10381000F1F04000801C00E0401E00900028FBD129
:1038200020688168C1F3007141B9E16D41F0100178
:10383000E165216E41F001012166012502F0DAF80F
:10384000E16DC90600D430B1E06D40F01000E065D4
:1038500001252846F8BDE06D20F4807040F002009C
:10386000E0652068806810F0010F11D14FF0A04092
:1038700080684B4900F00100896801F001010843AC
:1038800006D148486168826822F47C120A4382604B
:10389000E168E06B627F0843A16841EA4231084376
:1038A00094F8241040EA0140012904D1218D3E4AB8
:1038B00002EB41410843E16A29B101F47871226BBE
:1038C000014342EA01002268D168384B19400143A4
:1038D000D16020680169626B21F040611143016190
:1038E000206802F083F870BB207F94F838108003C2
:1038F00040EA41022168C86844F202039843104339
:10390000C86020690028206801690AD041F480312C
:103910000161206850F8C01F22696FF30D01114347
:1039200007E021F480310161206850F8C01F6FF377
:103930000D01016094F8400001280CD02068016955
:1039400021F001010161606901282068016B21F00B
:103950000F0111D013E0D4E911010843D4E9131287
:103960001143084321680A6940F2FC739A431043EB
:1039700040F001000861E6E7226A521E114301632C
:10398000E06D20F0020040F00100E06561E700001A
:10399000C0FFFF5FC0FFFF7F14000020400D030049
:1039A00000010050000300500000FEFF0740F0FF40
:1039B00010B598B00446142111A8FCF750FF44211B
:1039C0006846FCF74CFF2068B0F1A04F26D14FF4B9
:1039D0000040009080030F90684600F0D5FB08B1CE
:1039E000FFF71CFB0E48C16C41F40051C164C16C6F
:1039F00001F400511691C16C41F00201C164C06C28
:103A000011A900F0020016904FF4A040119003207D
:103A1000129000201390034800F082F918B010BDF6
:103A200000100240000400482DE9F04104463B48E4
:103A30000F46816801F01F05A16908290FD085B1E3
:103A4000052D0ED0092D0CD0806800F4604060B1C7
:103A5000E06D40F02000E0650120BDE8F08108261F
:103A600004E02068C068C007F1E7042600F08EFA81
:103A7000804615E0781C13D000F088FAA0EB08000F
:103A8000B84200D867B920680068304208D1E06DBC
:103A900040F00400E065002084F858000320DCE7D3
:103AA000206800683042E5D0E06D40F40070E065C9
:103AB000206801F0A7FF80B1607F70B920680068BE
:103AC00000070AD5E06D20F48070E065E06DC00469
:103AD00003D4E06D40F00100E065114A20684FF02A
:103AE000A041904201D10B4600E00346834210D032
:103AF0007DB1052D0DD0092D0BD0904200D001468F
:103B0000C968082E07D0490401D40C2101600020A7
:103B1000A3E7C168F5E70821F8E7000000030050BB
:103B2000000100502DE9F04104463848806800F05B
:103B30001F05206801F05EFF18B102210846BDE8AC
:103B4000F08194F8580001280CD0012084F8580026
:103B50002046FEF7B9F901004FF0000304D084F8C5
:103B60005830EBE70220EAE7E06D40F6016290434F
:103B700040F48070E065264A20684FF0A0469042ED
:103B800001D1374600E00746874200D01DB9E76DF6
:103B900027F48017E765E76DFF0404D5276E27F04B
:103BA0000607276600E023661C27076084F8583064
:103BB0002068904201D1334600E00346834215D08D
:103BC000A5B1052D12D0092D10D0E36D43F480135B
:103BD000E365904200D13046C0688001AED5E06D0B
:103BE00020F4005040F48050E065A7E7C2689201DD
:103BF00005D5E26D22F4005242F48052E2658268FB
:103C0000044B1A40121D826098E700000003005028
:103C100000010050C0FFFF7F10B590F82530002153
:103C20000122022B03D00421C163012122E0036899
:103C30001C6824F00E041C60836C1C6824F48074DF
:103C40001C6003681C6824F001041C6090F8443078
:103C5000046C03F01F0302FA03F36360D0E913342A
:103C60005C60436D33B11C6824F480741C60D0E93F
:103C700016345C6080F82520002280F82420084655
:103C800010BD70B590F82520002401212346022A9A
:103C900007D00422C26380F8251080F82430012464
:103CA00029E00268156825F00E05156002681568A0
:103CB00025F001051560826C156825F48075156086
:103CC00090F84420056C02F01F0201FA02F26A60CB
:103CD000D0E913255560426D32B1156825F4807521
:103CE0001560D0E91625556080F8251080F824303D
:103CF000816B01B18847204670BD000070B5044655
:103D000000F044F90546601C02D0044840680444B1
:103D100000F03CF9401BA042FAD370BD080000201F
:103D20002DE9F04FDFF82092002301260324A9F1AA
:103D3000040B85B00F2709F1040AABF1040EFAE079
:103D400006FA03F52A407CD091F804C00CF0030C6D
:103D5000BCF1010F02D0BCF1020F26D1D0F808C08F
:103D6000CDF800C04FEA430C04FA0CF8CDF810C0AF
:103D7000DDF800C02CEA080CCDF800C0D1F80C80AA
:103D8000DDF810C008FA0CF8DDF800C048EA0C08AD
:103D9000C0F80880D0F804C02CEA050C0D79C5F3F2
:103DA00000159D4045EA0C0545600D79ED43AD07D2
:103DB0000ED0C5684FEA430804FA08FC25EA0C0552
:103DC000D1F808C00CFA08FC4CEA050CC0F80CC08D
:103DD0000D7905F00305022D16D1DD0800EB850CE9
:103DE000CDF808C0DCF820805D074FEAD56C07FAF3
:103DF0000CF528EA05080D6905FA0CF5DDF808C090
:103E000045EA0805CCF8205005684FEA430CCDF888
:103E100008C004FA0CFC25EA0C0591F804C00CF06B
:103E20000308DDF808C008FA0CF848EA0508C0F8ED
:103E300000804D6815F4403F7CD0444DD5F860C0FB
:103E400000E077E04CF0010CC5F860C02D6E23F067
:103E5000030C05F0010500953D4D65440295AD68E4
:103E60004FEA837C4FEA1C7807FA08FC25EA0C0528
:103E7000B0F1904F06D0DFF8DCC0604505D14FF0BF
:103E8000010C20E04FF0000C1DE0DFF8CCC06045D5
:103E900002D14FF0020C16E0DFF8C0C0604502D13D
:103EA0004FF0030C0FE0DFF8B8C0604502D14FF0CF
:103EB000040C08E0DFF8ACC0604502D14FF0050CFF
:103EC00001E04FF0060C0CFA08FC4CEA050C029DD0
:103ED000C5F808C0D9F80050CC46D1F80480954305
:103EE0005FEAC82800D51543CCF80050DAF8005036
:103EF000D446D1F8048095435FEA882800D515435D
:103F0000CCF80050DBF80050DC46D1F80480954333
:103F10005FEA883800D51543CCF80050DEF8005031
:103F2000F446D1F8048095435FEAC83800D51543BC
:103F3000CCF800505B1C0A6832FA03F57FF400AF3E
:103F400005B0BDE8F08F00000804014000100240F9
:103F5000000001400004004800080048000C004830
:103F600000100048001400480069084000D00120FB
:103F70007047426921EA02030A4043EA0241816133
:103F800070470AB18161704781627047014880685B
:103F90007047000008000020024881684268114410
:103FA000816070470800002010B50024032000F055
:103FB00073F80F2000F008F808B1012401E000F0C8
:103FC00025F8204610BD000070B50E4E05460024B1
:103FD000706898B14FF47A71B1FBF0F00A49096842
:103FE000B1FBF0F000F066FD40B9102D06D20022C2
:103FF0002946501E00F030F8356000E001242046CC
:1040000070BD000008000020140000200A4882B0A3
:10401000016E41F001010166016E01F001010091A4
:10402000816D41F080518165806D00F0805000907D
:1040300002B000F0A1B8000000100240002809DB27
:1040400000F01F02012191404009800000F1E020B2
:10405000C0F8001170470000F0B40E4B1B680C460E
:10406000C3F30223C3F10705042D00D90425191D4C
:10407000072901D2002300E0DB1E012606FA05F124
:10408000491E214099409E40761E16403143F0BCA7
:1040900003F0D7B80CED00E0064900F0070208680D
:1040A0004FF6FF03184040EA0220034A104308601D
:1040B000704700000CED00E00000FA052B492C4B86
:1040C0000A6832214A432B4940B1B0F5007F0868A5
:1040D00029D020F4C06040F480602CE00868C0F370
:1040E0004120022804D051F8800F20F4807022E093
:1040F000D1F8800020F48070C1F88000086820F4B6
:10410000C06040F400700860B2FBF3F0401C00E0B7
:10411000401E4A69520501D50028F9D14869400579
:104120000AD503207047C0F34120022806D051F879
:10413000800F40F48070086000207047D1F8800044
:1041400040F48070C1F88000086820F4C06040F43A
:1041500000700860B2FBF3F0401C00E0401E4A69AA
:104160005205DBD50028F9D1D8E700001400002063
:1041700040420F00007000400248816841F48041D5
:1041800081607047007000402DE9F84304460068E4
:1041900000269D4D00035ED5A86D0027C00008D401
:1041A000A86D40F08050A865A86D012700F08050F0
:1041B0000090DFF85892D9F8001041F48071C9F8E6
:1041C0000010FFF7E3FE804606E000BFFFF7DEFECB
:1041D000A0EB080002282BD8D9F80000C005F5D5BF
:1041E000D5F8900010F4407014D0216C814211D0A9
:1041F000D5F89000D5F8901020F4407041F480314B
:10420000C5F89010D5F8901021F48031C5F89010C1
:10421000C5F89000C00711D0FFF7B8FE804641F204
:10422000883907E0FFF7B2FEA0EB0801494501D944
:1042300003260BE0D5F890008007F3D5D5F8900061
:10424000216C20F440700843C5F890001FB1A86DA0
:1042500020F08050A8652078C00707D0D5F88800E6
:10426000616820F003000843C5F8880020788007C3
:1042700007D5D5F88800A16820F00C000843C5F8E0
:1042800088002078400707D5D5F88800E16820F03D
:1042900030000843C5F888002078000707D5D5F816
:1042A0008800216920F0C0000843C5F88800207804
:1042B000800607D5D5F88800616920F4406008437E
:1042C000C5F888002078400607D5D5F88800A16990
:1042D00020F440500843C5F888002078000607D530
:1042E000D5F88800E16920F440400843C5F888000B
:1042F0002088C00507D5D5F88800216A20F4403011
:104300000843C5F888002088800507D5D5F88800BF
:10431000616A20F440200843C5F8880020884005E1
:104320000FD5D5F88800A16A20F440100843C5F8DD
:104330008800A06AB0F5801F03D1E86840F48010BF
:10434000E860208800050FD5D5F88800E16A20F4E0
:1043500040000843C5F88800E06AB0F5800F03D13B
:10436000E86840F48010E8602088C0040FD5D5F8D4
:104370008800216B20F040700843C5F88800206B4E
:10438000B0F1807F03D1E86840F48010E8602088B5
:104390004FF0006180040ED5D5F88800626B20F0E4
:1043A00040601043C5F88800606B884203D1E8681C
:1043B00040F48010E860208840040ED5D5F88800CD
:1043C000A26B20F040601043C5F88800A06B8842C3
:1043D00003D1E86840F48010E860208800040FD51D
:1043E000D5F88800E16B20F040500843C5F88800FC
:1043F000E06BB0F1805F03D1E86840F48030E860A2
:104400003046BDE8F8830000001002400070004014
:104410002DE9F0470E4605004FF0000725D0DFF8E4
:10442000AC81D8F8000000F00F00B0420CD2D8F8F0
:10443000001021F00F013143C8F80010D8F8000037
:1044400000F00F00B04210D12968614CC80741F25A
:10445000883A5AD06868DFF87C91032808D002288F
:1044600020682DD0400500282CDB0120BDE8F08716
:1044700020688001F9D5E06800F00302E068C0F32D
:104480000310401C032A19D0534A00BFB2FBF0F0BE
:10449000E268C2F306225043E268C2F34162521C52
:1044A0005200B0FBF2F0484517D9A06810F0F00FA9
:1044B0000CD0880711D5A86840B10EE0474AE5E75F
:1044C0008003D0E700F0BCF8484506D9A06820F08A
:1044D000F00040F08000A0608027A068696820F0AC
:1044E00003000843A060FFF751FD814606E000BFCE
:1044F000FFF74CFDA0EB090151453AD8A068696867
:1045000000F00C00B0EB810FF2D12868810714D5C0
:10451000400703D5A06840F4E060A0602878000759
:1045200005D5A06820F4605040F4E060A060A06869
:10453000A96820F0F000084304E0802F03D1A068B0
:1045400020F0F000A060D8F80010404601F00F0104
:10455000B14216D9016821F00F0131430160FFF724
:1045600015FD074607E000BFFFF710FDC11B5145D1
:1045700001D903207AE7D8F8000000F00F00B0421C
:10458000F2D12878400705D5A068E96820F4E060FA
:104590000843A0602878000706D5A068296920F4A0
:1045A000605040EAC100A06000F04AF8A1680C4ADF
:1045B000C1F30311515C01F01F01C84009490860B3
:1045C00009480068BDE8F047FFF7FEBC0020024044
:1045D0000010024000B4C4040024F40000366E0150
:1045E000DA8D00081400002008000020014800684F
:1045F00070470000140000200548064900688968DB
:10460000054AC1F30221515C01F01F01C840704707
:104610001400002000100240EA8D000805480649F9
:1046200000688968054AC1F3C221515C01F01F018D
:10463000C84070471400002000100240EA8D0008B6
:10464000184910B58868C0F381021748012A0BD0B9
:104650008A68164BC2F38102022A06D08A68C2F326
:104660008102032A03D0002010BD184610BDCA687D
:1046700002F00304CA68C2F30312521C032C02D0D6
:10468000B0FBF2F001E0B3FBF2F0CA68C968C2F314
:1046900006225043C1F34161491C4900B0FBF1F0CF
:1046A00010BD0000001002400024F40000366E012E
:1046B0002DE9F84304007AD02078F84DC00747D0A0
:1046C000A868E96800F00C0001F003010C2802D092
:1046D000082817D001E0032914D06068B0F5803FA6
:1046E00017D0B0F5A02F286817D020F480302860AC
:1046F000286820F4802028606068E0B1FFF746FC5D
:10470000064614E02868800322D560680028D2D0CD
:104710001EE0286840F48030EDE740F480202860F7
:10472000F7E700BFFFF732FC801B642870D82868C9
:104730008003F7D50CE0FFF729FC064605E000BF33
:10474000FFF724FC801B6428F0D828688003F7D486
:10475000207880074CD5A868E96800F00C0001F0CB
:1047600003010C2802D004280DD001E002290AD050
:10477000E068002828682BD040F480702860FFF79C
:1047800005FC064619E02868400502D5E0680028C7
:1047900091D06868217C20F0FE4040EA01606860AA
:1047A000BF480068FFF710FC002800D120E072E14C
:1047B000FFF7ECFB801B0228B8D828684005F7D526
:1047C0006868217C20F0FE4040EA016068600FE0EC
:1047D00020F480702860FFF7D9FB064605E000BF93
:1047E000FFF7D4FB801B0228A0D828684005F7D427
:1047F0002078000729D560690028D5F8940013D0E7
:1048000040F00100C5F89400FFF7C0FB064606E043
:1048100090E000BFFFF7BAFB801B022886D8D5F8CE
:1048200094008007F6D510E020F00100C5F8940050
:10483000FFF7ACFB064604E0FFF7A8FB801B02284D
:1048400078D8D5F894008007F6D42078400761D551
:10485000A86D0026C00008D4A86D40F08050A8655F
:10486000A86D012600F0805000908E480168C905AF
:1048700011D40168804641F480710160FFF786FB26
:10488000074604E0FFF782FBC01B022852D8D8F885
:104890000000C005F6D5A068012815D00528D5F878
:1048A000900016D020F00100C5F89000D5F89000D7
:1048B00020F00400C5F89000A06841F28838B8B133
:1048C000FFF764FB07460EE0D5F8900040F00100CA
:1048D000F0E740F00400C5F89000F5E7FFF756FB5D
:1048E000C11B414526D8D5F890008007F6D50CE0CD
:1048F000FFF74CFB074604E0FFF748FBC11B4145AF
:1049000018D8D5F890008007F6D41EB1A86D20F015
:104910008050A8652078800629D5A0690028D5F8A0
:10492000980013D040F00100C5F89800FFF72EFB67
:10493000064606E075E000BFFFF728FB801B022853
:104940006FD8D5F898008007F6D510E020F0010068
:10495000C5F89800FFF71AFB064604E0FFF716FBC0
:10496000801B02285DD8D5F898008007F6D4E0694E
:10497000F0B3A968C1F3810103295DD0022828683A
:1049800020F08070286003D0FFF700FB04464BE066
:10499000FFF7FCFA064604E0FFF7F8FA801B02284E
:1049A0003FD828688001F7D4F4E908016FF00F02BE
:1049B00002EB01110843218A5204490802EB4151DC
:1049C000A26841EA02210843217D4FF07E42490856
:1049D00002EB41610843217B40EAC160E968324A49
:1049E00011400843E860286840F08070286000E0CB
:1049F0005EE0E86840F08070E860FFF7C7FA0446C0
:104A000005E000BFFFF7C2FA001B022809D828689A
:104A10008001F7D54CE000BFFFF7B8FA001B022871
:104A200002D90320BDE8F88328688001F4D4E8683F
:104A30001E490840E8603BE00128F3D0E868226A9C
:104A400000F00301914226D1616A00F0F0020901F1
:104A5000103991421FD1A26A00F4FE41B1EB022F3E
:104A600019D194F82C2000F07841B1EBC26F12D12B
:104A7000218E00F4C00249084905A1F500119142B8
:104A800009D194F8341000F0C06049084906A1F13A
:104A9000007181420CD00120C4E7000000100240E8
:104AA00008000020007000400C809F01FCFFEEFE1B
:104AB0000020B7E710B5401EB0F1807F01D3012080
:104AC00010BD4FF0E02460610F21601702F0B9FBC8
:104AD0000020A06107202061002010BD30B590F8B3
:104AE0003C20012A42D0012280F83C20CA688B6811
:104AF00022F440721A434B6822F480621A430B6816
:104B000022F400621A430B6922F480521A434B6963
:104B100022F400521A430B6B22F480421A430B8B8F
:104B200022F4702242EA0342CB6922F080521A43F7
:104B30000F4D03680024AB4202D00E4DAB4210D1A2
:104B40000D8D22F4700242EA05520D6A22F0807245
:104B50002A434D6A22F000722A43C96A22F00052A9
:104B60000A435A6480F83C40002030BD022030BD2A
:104B7000002C01400034014010B5040003D094F82B
:104B80003D0010B107E0012010BD002084F83C007A
:104B9000204600F023F8022084F83D00211D206803
:104BA00001F018FB012084F8480084F83E0084F8E6
:104BB0003F0084F8400084F8410084F8420084F803
:104BC000430084F8440084F8450084F8460084F8E3
:104BD000470084F83D00002010BD000008B50068C3
:104BE0000649884208D10648016E41F40031016649
:104BF000006E00F40030009008BD00000044014049
:104C00000010024010B586B0044614216846FBF738
:104C100026FE0F492068884217D10E48C16C41F02A
:104C20000101C164C06C694600F0010005904FF4B9
:104C300080500090022001900020029003900120FB
:104C400004904FF09040FFF76BF806B010BD0000E5
:104C5000004401400010024070B5044690F83C004A
:104C600000260D4601280BD0012084F83C000C2AB8
:104C70004AD007DC82B1042A20D0082A06D131E0CC
:104C8000022070BD102A53D0142A63D001260020C0
:104C900084F83C00304670BD206801F007FB2068B6
:104CA000816941F0080181612068816921F0040176
:104CB0008161206881692A69114311E0206801F04F
:104CC00043FB2068816941F400618161206881694A
:104CD00021F480618161206881692A6941EA0221A9
:104CE0008161D4E7206801F077FB2068C16941F059
:104CF0000801C1612068C16921F00401C161206817
:104D0000C1692A69114311E0206801F0ADFB2068F8
:104D1000C16941F40061C1612068C16921F4806109
:104D2000C1612068C1692A6941EA0221C161AEE717
:104D3000206801F0E1FB2068016D41F00801016588
:104D40002068016D21F0040101652068016D2A6968
:104D5000114311E0206801F007FC2068016D41F467
:104D6000006101652068016D21F4806101652068A2
:104D7000016D2A6941EA0221016588E710B5040046
:104D800003D094F83D0010B107E0012010BD0020D1
:104D900084F83C00204600F022F8022084F83D0010
:104DA000211D206801F016FA012084F8480084F8DB
:104DB0003E0084F83F0084F8400084F8410084F805
:104DC000420084F8430084F8440084F8450084F8E5
:104DD000460084F8470084F83D00002010BD70476D
:104DE00030B50446022269B1042912D0082917D02F
:104DF0000C291CD0102921D094F84300012824D07C
:104E0000012030BD94F83E000128F9D184F83E20FD
:104E10001DE094F83F000128F2D184F83F2016E00D
:104E200094F840000128EBD184F840200FE094F87A
:104E300041000128E4D184F8412008E094F84200C0
:104E40000128DDD184F8422001E084F843200122CA
:104E5000206801F01DFA194B20681949194A984237
:104E600009D0884207D0904205D0174DA84202D001
:104E7000164DA84203D1456C45F4004545642068B1
:104E800098420CD0B0F1804F09D0114B984206D017
:104E9000104B984203D0884201D0904207D18168DC
:104EA0000D4A1140062906D0B1F5803F03D00168B4
:104EB00041F001010160002030BD0000002C0140E4
:104EC00000340140004001400044014000480140DE
:104ED00000040040000800400700010090F8841022
:104EE000012918D0012180F884102421C0F88810ED
:104EF00001680A680B6823F001030B6022F000517F
:104F000000224266036819602021C0F8881080F8EA
:104F1000842010467047022070477047704770B574
:104F2000044690F8840001281DD0012084F88400F4
:104F30002420C4F8880020680568026822F0010275
:104F400002602068826822F060620A438260204624
:104F500001F042FB206805602020C4F88800002092
:104F600084F8840070BD022070BD70B5044690F8CE
:104F7000840001281DD0012084F884002420C4F876
:104F8000880020680568026822F00102026020683B
:104F9000826822F060420A438260204601F01CFBD6
:104FA000206805602020C4F88800002084F8840070
:104FB00070BD022070BD7047704770472DE9F04109
:104FC00003680446D86919689A6840F60F052842B4
:104FD0004FF000054FF002060AD187067ED501F09A
:104FE000200702F0805C57EA0C0777D0616F42E13E
:104FF000B64FDFF8DCC2174001EA0C0C57EA0C0C84
:105000006CD05FEAC07C0CD05FEAC15C09D54FF080
:10501000010CC3F820C0D4F8903043F00103C4F869
:105020009030830709D5D30707D023681E62D4F8D0
:10503000903043F00403C4F8903043070AD5D307F7
:1050400008D0266804233362D4F8903043F002037A
:10505000C4F8903003070CD501F020033B4308D07F
:10506000266808233362D4F8903043F00803C4F86C
:10507000903003050BD54B0109D526684FF400632A
:105080003362D4F8903043F02003C4F89030D4F861
:105090009030002B3DD0800609D501F0200002F0B1
:1050A0008051084303D0616F09B120468847D4F886
:1050B000900021688968490602D410F0280F2AD090
:1050C000204601F06DFB2068806840061ED52068F0
:1050D000083050E8001F21F0400100E021E040E8E6
:1050E0000012002AF3D1D4F8800078B179498163A5
:1050F000D4F88000FEF7C5FD00280AD0D4F880005F
:10510000816B00E02046BDE8F04108472046FFF7EC
:1051100054FFBDE8F0812046FFF74FFFC4F89050E0
:10512000F7E7D4F86CC02027BCF1010F7ED15FEA0D
:10513000C06C7BD55FEAC16C78D5102018622068FE
:105140008068400651D5D4F880100A685068000481
:10515000000C3ED0B4F85C3083423AD9A4F85E002B
:105160000868006880062CD4216851E8000F20F4FC
:10517000807041E80002002AF6D12068083050E82B
:10518000001F21F0010140E80012002AF5D120683B
:10519000083050E8001F21F0400140E80012002ACA
:1051A000F5D1C4F88C70E566216851E8000F20F055
:1051B000100041E80002002AF6D1D4F88000FEF782
:1051C0002BFD2667B4F85C00B4F85E10401A81B27B
:1051D00007E0B4F85C1081429BD11068800698D536
:1051E00026672046FFF799FE93E7B4F85C00B4F811
:1051F0005E10401A81B2B4F85E00002889D0002900
:1052000087D0226852E8000F20F4907042E8000333
:10521000002BF6D12D4BDB432068083050E8002FDF
:105220001A4040E8002CBCF1000F00E00EE0F3D182
:10523000C4F88C70E5666567206850E8002F22F09E
:10524000100240E80023002BF6D1C9E7C60209D5B9
:10525000560207D54FF4801018622046BDE8F04191
:10526000FFF7AABE03060AD501F0800302F400028C
:10527000134304D0A16F00297FF444AF49E74206ED
:1052800011D54A060FD52046016851E8002F22F0BB
:10529000400241E80023002BF6D1C0F888708567F2
:1052A00000F0A1F935E7020206D54A0004D52046F0
:1052B000BDE8F041FFF77FBEC00195D5002993DA24
:1052C0002046BDE8F041FFF729BE000001000010B4
:1052D000200100049167000810B5040003D0D4F841
:1052E000880010B107E0012010BD002084F8840080
:1052F000204600F027F82420C4F8880020680168C0
:1053000021F001010160A06A10B1204601F086F988
:10531000204601F0D7FC0128E6D02068416821F43E
:10532000904141602068816821F02A0181602068F5
:10533000016841F0010101602046BDE8104001F024
:10534000D1B900002DE9F04198B00446142111A80C
:10535000FBF785FA44216846FBF781FA4649206845
:10536000464C0727022600254FF09048884226D158
:105370000120CDE900056846FEF706FF08B1FDF7FC
:105380004DFE206E40F480402066206E00F4804088
:105390001690E06C40F00100E064E06CCDE912652D
:1053A00000F0010016904FF4C060CDE91457119041
:1053B00011A94046FEF7B4FC18B0BDE8F0813049B1
:1053C000884228D1684600960295FEF7DDFE08B1B6
:1053D000FDF724FEA06D40F40030A065A06D00F440
:1053E00000301690E06C40F00100E064E06CCDE924
:1053F000126500F0010016900C20CDE914571190B1
:1054000011A94046FEF78CFC002211462620FEF72B
:1054100023FE26202CE01B498842CDD10420009099
:1054200003956846FEF7B0FE08B1FDF7F7FDA06DE5
:1054300040F48020A065A06D00F480201690E06C00
:1054400040F00200E064E06CCDE9126500F002007B
:1054500016904FF44060CDE91457119011A90A48F5
:10546000FEF75EFC002211462720FEF7F5FD2720FF
:10547000FEF7E4FDA0E70000003801400010024004
:1054800000440040004800400004004830B4D0F818
:105490008C30202B02D0022030BC7047A9B1A2B1C1
:1054A0000023C3660A4C0368A3420BD05B681B024F
:1054B00008D5046854E8003F43F0806344E80035B1
:1054C000002DF6D130BC01F037BD0120E4E700002B
:1054D00000800040104A10B590894FF480618842E6
:1054E0000CD3002090810D48FBF7B9F94FF6FF73FC
:1054F0000A220BA10E4800F01FF804E0074B1179B7
:105500001954401C908104490122BDE81040091D36
:105510000848FFF7BBBF0000240000204003002024
:10552000BDD3CAD5BBBAB4E6D2E7B3F600000000DB
:105530003C010020640200202DE9F8430446D0F825
:105540008800984616460D46202802D00220BDE865
:10555000F883A5B19EB10020C4F890002120C4F8C2
:1055600088001834FEF712FDA6878146E68754F8B6
:10557000100C2027183CB0F5805F02D003E001201A
:10558000E5E7206910B12E46002510E000260EE068
:105590008021204601F058FDC0B9DEB116F8010B9C
:1055A00021688862B4F85600401EA4F85600B4F88A
:1055B00056004B464FF00002CDF800800028E7D19E
:1055C0004FF04001204601F03FFD40B1C4F8887023
:1055D0000320BCE735F8020BC0F30800E0E7C4F88D
:1055E00088700020B3E77047FEE7027C8A430274AC
:1055F0007047007C7047000000B585B014216846F4
:10560000FBF72DF94FF6FF70009000200321CDE944
:105610000201019069460248FEF782FB05B000BD19
:105620000008004800B585B014216846FBF717F95B
:105630004FF6FF700090012001900320039000209E
:10564000029069460248FEF76BFB05B000BD000002
:10565000000800482DE9F0410A4E804630680024D9
:1056600085B22146204600F017F900F055F94FF4B5
:105670009637404600F024F9641CBC42F9D33560EB
:10568000BDE8F0811408004870B586B01421684662
:10569000FBF7E5F81E48C16C41F00401C164C16C20
:1056A00001F004010591C16C41F00101C164C16CBC
:1056B00001F001010591C16C41F00201C164C06CAF
:1056C000032500F0020005904FF4487001240026E5
:1056D00003958DE8510069460E48FEF721FB200234
:1056E00003958DE851004FF0904469462046FEF73F
:1056F00017FBFFF797FFA06940F48070A061054891
:105700001830016841F40871016006B070BD0000F6
:105710000010024000040048203AD2B2034B02EBD2
:10572000420203EB021200F023B80000208E0008B2
:105730002DE9F043DFF8348081460E46D8F80000AA
:10574000002587B240F23F1407E021464846FFF7A4
:10575000E3FF103C6D1CA4B2761C32780AB1142D04
:10576000F3D3C8F80070BDE8F083000014080048C7
:105770002DE9F04791468A460026044600F08CF851
:10578000DFF84080012700BF00F0C6F85FF0000599
:1057900039F8160007FA05F10842404601D1408861
:1057A00000E0008800F08CF86D1C102DF0D3641C14
:1057B000E4B25146204600F06FF8761C182EE3D371
:1057C000BDE8F0877E00002070B50D4E306885B2D0
:1057D000FFF75AFF002000F017F80A4CA080A088BD
:1057E000A0F50241303907D000F086FB002000F020
:1057F0000BF8A080356070BD00F0F5FAF6E7000008
:10580000140800487E00002070B51D490A6842F463
:1058100000720A600A6842F480720A60184C103CF8
:10582000226842F020022260164A1060086840F0A8
:105830002000086000BF00BF00BF206840F02000CB
:105840002060206840F480702060FFF7D5FE4FF0A4
:105850009041886A40F48070886200BF00BF00BF3A
:105860000848001F006885B2886940F4807088612C
:10587000FFF7D8FE206840F400702060284670BD15
:10588000280400481408004801B5BDF8000001498B
:10589000488008BD7E00002010B50C46014620203F
:1058A00000F068F82146BDE81040212000F062B801
:1058B00001B5BDF800000149088008BD7E00002048
:1058C000134A116841F400711160114910390B68D5
:1058D00043F480730B600B6843F020030B600D4BA7
:1058E0001860106840F02000106000BF00BF00BFCB
:1058F000086840F020000860086840F48070086084
:1059000000BF00BF00BF086840F400700860704727
:1059100028040048140800481449086840F400703E
:105920000860086840F48070086010481038026809
:1059300042F0200202600E4B22221A600A6842F0F6
:1059400020020A6000BF00BF00BF016841F02001D3
:105950000160016841F48071016000BF00BF00BFB9
:10596000016841F40071016070470000280400489C
:1059700014080048184B10B51A6842F400721A60F7
:105980001A6842F480721A60134A103A146844F09C
:1059900020041460114C2060186840F0200018604A
:1059A00000BF00BF00BF106840F02000106010680A
:1059B00040F4807010602160186840F0200018608A
:1059C00000BF00BF00BF106840F0200010601068EA
:1059D00040F48070106010BD28040048140800488E
:1059E00000EB8100006E00F0F84070478068C0F363
:1059F000C00070478068C0F3800070478068C0F3C3
:105A000080007047C06810F4406F01D000207047DC
:105A100001207047042303EAD15310B518444369A9
:105A2000C1F3045107248C40A3438A4013434361CC
:105A300010BD00EB8100016E21F0004111430166B1
:105A40007047000030B58BB00024089409942021E1
:105A500068460A94FAF703FF23484FF0A041042553
:105A600001604FF40031C0E9011485610121C46077
:105A7000C0E90441047744770222026280F82410CE
:105A8000C0E90A14046380F83840C46380F84040D9
:105A9000FDF794FE08B1FDF7C1FA08A91248089471
:105AA000FDF70AFC08B1FDF7B9FA1048009006208E
:105AB000CDE901047F200594CDE9030569460A4834
:105AC000FDF766FC08B1FDF7A9FA094800900C2023
:105AD000019069460448FDF75BFC002801D0FDF702
